S00E0000436E42656C742E73726563DE
S11300000C9434000C943E000C943E000C943E007E
S11300100C943E000C943E000C943E000C943E0064
S11300200C943E000C943E000C943E000C943E0054
S11300300C943E000C943E000C943E000C943E0044
S11300400C943E000C943E000C943E000C943E0034
S11300500C943E000C943E000C943E000C943E0024
S11300600C943E000C943E0011241FBECFEFD8E048
S1130070DEBFCDBF0E9440000C9452000C940000DF
S11300808FEF84B917B88AB918B82A9886B1282F7F
S1130090217030E080FF02C0589AF8CF232BB1F7CB
S10B00A05898F4CFF894FFCF47
S9030000FC
