S011000073657269616C436F6D2E7372656374
S113000072C000009EC000009CC000009AC00000A6
S113001098C0000096C0000094C0000092C0000088
S113002090C000008EC000008CC000008AC0000098
S113003088C0000086C0000084C0000082C00000A8
S113004080C000007EC000007CC000007AC00000B8
S113005078C0000076C0000074C0000005C4000031
S113006070C0000030C2000064C200006AC000001A
S113007068C0000066C0000064C0000062C00000E8
S113008060C000005EC000005CC000005AC00000F8
S113009058C0000056C0000054C0000052C0000008
S11300A050C000004EC000004CC000004AC0000018
S11300B048C0000046C0000044C0000042C0000028
S11300C040C000003EC000003CC000003AC0000038
S11300D038C0000036C0000034C0000032C0000048
S11300E030C00000CB0211241FBECFEFD1E2DEBF2F
S11300F0CDBF00E00CBF12E0A0E0B2E0E0E5F0E12B
S113010000E00BBF02C007900D92A034B107D9F7ED
S113011022E0A0E4B2E001C01D92AA3EB207E1F7DA
S113012010E0C3E7D0E000E005C021970109802F6B
S1130130FE0138D5C237D10780E00807B1F759D29C
S113014085C75ECF26E040E855E260E070E080E4D9
S113015092E056C1CF92DF92EF92FF92CF93DF935A
S113016000D000D0CDB7DEB780E492E048D0892B30
S1130170D9F360E472E0CE0101965FD3CE0101961B
S1130180E5D46B017C0166E072E080E492E07AD20F
S11301904AE050E0B60180E492E011D36DE072E0F1
S11301A080E492E06FD242E050E0B60180E492E055
S11301B006D363E172E080E492E064D248E050E068
S11301C0B60180E492E0FBD269E172E080E492E05F
S11301D059D240E150E0B60180E492E0F0D2CE0181
S11301E00196FAD326960FB6F894DEBF0FBECDBFA4
S11301F0DF91CF91FF90EF90DF90CF900895FC01B5
S1130200918D228D892F90E0805C9F4F821B9109F4
S11302108F7399270895FC01918D828D981731F081
S1130220828DE80FF11D858D90E008958FEF9FEF8B
S11302300895FC01918D828D981761F0828DDF0104
S1130240A80FB11D5D968C91928D9F5F9F73928FC5
S113025090E008958FEF9FEF0895FC01538D448D36
S1130260252F30E0842F90E0821B930B541710F05D
S1130270CF9608950197089582EC92E0892B39F086
S113028080E090E0892B19F07DD1811125C080E0B8
S113029090E0892B41F080E090E0892B21F00E94CE
S11302A0000081111CC080E090E0892B41F080E0C7
S11302B090E0892B21F00E940000811113C080E09E
S11302C090E0892BA1F080E090E0892B81F00E94DE
S11302D0000081110AC008950E940000D8CF0E9436
S11302E00000E1CF0E940000EACF0C9400000895C2
S11302F0FC01848DDF01A80FB11DA35ABF4F2C91BF
S1130300848D90E001968F739927848FA689B7898D
S11303102C93A089B1898C9180648C93938D848D66
S1130320981306C00288F389E02D80818F7D808335
S11303300895EF92FF920F931F93CF93DF93EC01F5
S113034081E0888F9B8D8C8D981305C0E889F9898D
S1130350808185FD23C0F62E0B8D10E00F5F1F4FAB
S11303600F731127E02E8C8DE8120BC00FB607FC1B
S1130370FACFE889F989808185FFF5CFCE01B8DF0E
S1130380F2CF8B8DFE01E80FF11DE35AFF4FF0828F
S11303900B8FEA89FB898081806207C0EE89FF891F
S11303A06083E889F98980818064808381E090E0BA
S11303B0DF91CF911F910F91FF90EF900895CF930C
S11303C0DF93EC01888D8823C1F0EA89FB89808161
S11303D085FD05C0A889B9898C9186FD0EC00FB62C
S11303E007FCF5CF808185FFF2CFA889B9898C916C
S11303F085FFEDCFCE017CDFE8CFDF91CF9108956B
S1130400CF92DF92EF92FF921F93CF93DF93EC0191
S11304106A017B01122FE889F98982E08083411502
S1130420514E61057105A9F060E079E08DE390E03B
S1130430A701960195D3DA01C9010197A109B10970
S1130440B695A795979587959C01211580E1380766
S1130450A0F0E889F989108260E874E88EE190E000
S1130460A70196017DD3DA01C9010197A109B10958
S1130470B695A795979587959C01EC85FD85308366
S1130480EE85FF852083188EEC89FD891083EA8927
S1130490FB89808180618083EA89FB89808188600F
S11304A08083EA89FB89808180688083EA89FB896B
S11304B080818F7D8083DF91CF911F91FF90EF909A
S11304C0DF90CF9008951F920F920FB60F921124D0
S11304D00BB60F922F938F939F93EF93FF93E0911B
S11304E05002F09151028081E0915602F09157023E
S11304F082FD12C09081809159028F5F8F73209189
S11305005A02821751F0E0915902F0E0E05CFD4F8D
S1130510958F8093590201C08081FF91EF919F9143
S11305208F912F910F900BBE0F900FBE0F901F90C5
S113053018951F920F920FB60F9211240BB60F92BB
S11305402F933F934F935F936F937F938F939F93D7
S1130550AF93BF93EF93FF9380E492E0C9DEFF91E2
S1130560EF91BF91AF919F918F917F916F915F9127
S11305704F913F912F910F900BBE0F900FBE0F9094
S11305801F90189580E492E03ADE21E0892B09F46B
S113059020E0822F0895E0E4F2E01382128288EED4
S11305A093E0A0E0B0E084839583A683B78383E2DD
S11305B092E09183808385EC90E09587848784EC36
S11305C090E09787868780EC90E0918B808B81EC1C
S11305D090E0938B828B82EC90E0958B848B86ECFD
S11305E090E0978B868B118E128E138E148E089545
S11305F0089590D1FDDFA6DDCCE3D1E0ABDD2097FB
S1130600E9F33ADEFBCFCF92DF92EF92FF920F93A2
S11306101F93CF93DF936C017A018B01C0E0D0E08C
S1130620CE15DF0581F0D8016D918D01D601ED91D4
S1130630FC910190F081E02DC6011995892B11F0F0
S11306402196EECF7E01C701DF91CF911F910F91CB
S1130650FF90EF90DF90CF9008956115710579F0C8
S1130660FB0101900020E9F73197AF01461B570BBE
S1130670DC01ED91FC910280F381E02D199480E07E
S113068090E00895EACFDC01ED91FC910190F081B6
S1130690E02D199461E372E0E0CF8F929F92AF92C4
S11306A0BF92EF92FF920F931F93CF93DF93CDB737
S11306B0DEB7A1970FB6F894DEBF0FBECDBF7C01A5
S11306C0FA01CB0119A2223008F42AE08E010F5D51
S11306D01F4F822E912CA12CB12CBF01A501940196
S11306E03FD2F901CA01015011096A3010F4605D6A
S11306F001C0695CD8016C93232B242B252B69F74B
S1130700B801C701AADFA1960FB6F894DEBF0FBEE9
S1130710CDBFDF91CF911F910F91FF90EF90BF90CC
S1130720AF909F908F900895CF92DF92EF92FF92B7
S11307300F931F93CF93DF932115310581F4DC01CF
S1130740ED91FC910190F081E02D642FDF91CF9128
S11307501F910F91FF90EF90DF90CF9019942A3062
S11307603105F1F477FF1BC06A017B01EC016DE2F6
S11307708ADF8C0144275527BA014C195D096E099B
S11307807F092AE0CE0189DF800F911FDF91CF918D
S11307901F910F91FF90EF90DF90CF9008952AE082
S11307A0DF91CF911F910F91FF90EF90DF90CF9049
S11307B074CF9A01AB01770F660B770BB5CF0F930C
S11307C01F93CF93DF93EC01F4DF8C01CE0162DF42
S11307D0800F911FDF91CF911F910F9108950F9377
S11307E01F93CF93DF93EC0189D0688779878A8739
S11307F09B87E881F9810284F385E02DCE01199568
S113080097FF16C07BD0088519852A853B85DC01B6
S1130810CB01801B910BA20BB30B0C811D812E818C
S11308203F8180179107A207B30718F38FEF9FEF5B
S1130830DF91CF911F910F9108950F931F93CF9341
S1130840DF93EC018B0163E372E02DD1C801C7DFB4
S113085097FD04C0682FCE0166D1F8CFCE01DF9199
S1130860CF911F910F9108951F920F920FB60F927F
S113087011242F933F938F939F93AF93BF938091B2
S1130880DE029091DF02A091E002B091E10230918A
S1130890DD0223E0230F2D3720F40196A11DB11DA5
S11308A005C026E8230F0296A11DB11D2093DD0289
S11308B08093DE029093DF02A093E002B093E10202
S11308C08091E2029091E302A091E402B091E502EA
S11308D00196A11DB11D8093E2029093E302A093BF
S11308E0E402B093E502BF91AF919F918F913F9144
S11308F02F910F900FBE0F901F9018952FB7F8945B
S11309006091DE027091DF028091E0029091E10239
S11309102FBF0895789484B5826084BD84B58160C6
S113092084BD85B5826085BD85B5816085BDEEE6F3
S1130930F0E0808181608083E1E8F0E010828081D2
S113094082608083808181608083E0E8F0E0808140
S113095081608083E1EBF0E0808184608083E0EB60
S1130960F0E0808181608083E1E9F0E08081826051
S11309708083808181608083E0E9F0E08081816010
S11309808083E1EAF0E080818260808380818160FD
S11309908083E0EAF0E0808181608083E1E2F1E03D
S11309A0808182608083808181608083E0E2F1E0E5
S11309B0808181608083EAE7F0E0808184608083C5
S11309C0808182608083808181608083808180686F
S11309D080831092C1000895FC018081918182C1BD
S11309E0CF93DF93EC0188819981009709F07AD144
S11309F0198218821D821C821B821A82DF91CF9178
S1130A0008950F931F93CF93DF93EC018B016F5FD6
S1130A107F4F88819981EFD1009731F09983888342
S1130A201B830A8381E001C080E0DF91CF911F9195
S1130A300F910895CF93DF93EC0188819981892BDD
S1130A4029F08A819B818617970758F4CE01D9DF54
S1130A50882341F08C819D81892B19F4E881F981E7
S1130A60108281E0DF91CF910895EF92FF920F936E
S1130A701F93CF93DF93EC017B018A01BA01DADF84
S1130A80811103C0CE01ACDF06C01D830C83B70106
S1130A9088819981BFD2CE01DF91CF911F910F91AF
S1130AA0FF90EF900895FC0111821082138212824C
S1130AB0158214826115710549F0FB010190002033
S1130AC0E9F73197AF01461B570BCFCF0895EF924B
S1130AD0FF920F931F93CF93DF936115710511F468
S1130AE080E01AC041155105B1F07B01EC018C8105
S1130AF09D818A01080F191FB801CE019BDF88234D
S1130B0079F3288139818C819D81B701820F931FEC
S1130B1081D21D830C8381E0DF91CF911F910F91CE
S1130B20FF90EF900895CF93DF931F921F92CDB75C
S1130B30DEB769831A8241E050E0BE016F5F7F4FE8
S1130B40C6DF0F900F90DF91CF910895FC01808153
S1130B509181009709F02FC260E070E0CB01089505
S1130B60A1E21A2EAA1BBB1BFD010DC0AA1FBB1FAD
S1130B70EE1FFF1FA217B307E407F50720F0A21B1F
S1130B80B30BE40BF50B661F771F881F991F1A948C
S1130B9069F760957095809590959B01AC01BD01B6
S1130BA0CF010895EE0FFF1F881F8BBF0790F691AA
S1130BB0E02D19940F931F93CF93DF938230910507
S1130BC010F482E090E0E091E802F091E90220E084
S1130BD030E0A0E0B0E0309719F14081518102810A
S1130BE0138148175907C8F08417950769F41097BB
S1130BF031F012960C93129713961C9327C000930E
S1130C00E8021093E90222C02115310519F04217B8
S1130C10530718F49A01BD01EF01DF01F801DBCF9E
S1130C2021153105F9F0281B390B2430310580F4E6
S1130C308A819B816115710521F0FB019383828375
S1130C4004C09093E9028093E802FE01329644C006
S1130C50FE01E20FF31F81939193225031093983EE
S1130C6028833AC02091E6023091E702232B41F415
S1130C7020910202309103023093E7022093E602AE
S1130C8020910002309101022115310541F42DB764
S1130C903EB74091040250910502241B350BE091AC
S1130CA0E602F091E702E217F307A0F42E1B3F0BD4
S1130CB02817390778F0AC014E5F5F4F24173507CA
S1130CC048F04E0F5F1F5093E7024093E602819372
S1130CD0919302C0E0E0F0E0CF01DF91CF911F914A
S1130CE00F910895CF93DF93009709F481C0FC011D
S1130CF0329713821282A091E802B091E902109710
S1130D0081F420813181820F931F2091E60230917A
S1130D10E7022817390751F5F093E702E093E6025A
S1130D2067C0ED0120E030E0CE17DF0740F44A81D0
S1130D305B819E0141155105F1F0EA01F5CFD383A2
S1130D40C28340815181840F951FC817D90759F474
S1130D5088819981840F951F0296918380838A816B
S1130D609B81938382832115310529F4F093E90251
S1130D70E093E8023DC0E901FB83EA83499159917C
S1130D80C40FD51FEC17FD0761F480819181840F96
S1130D90951F0296E90199838883828193819B83BD
S1130DA08A83E0E0F0E012968D919C91139700976E
S1130DB019F0FD01DC01F7CF8D919C9111979D01F4
S1130DC02E5F3F4F820F931F2091E6023091E7027E
S1130DD02817390769F4309729F41092E902109220
S1130DE0E80202C013821282B093E702A093E602E3
S1130DF0DF91CF9108956F927F928F929F92AF92DD
S1130E00BF92CF92DF92EF92FF920F931F93CF93F3
S1130E10DF93009781F4CB01DF91CF911F910F9164
S1130E20FF90EF90DF90CF90BF90AF909F908F9006
S1130E307F906F90BFCEFC01E60FF71F9C012250FC
S1130E403109E217F30708F4A5C0EC01D9010D91AB
S1130E501C91119706171707A8F00530110508F41F
S1130E6097C0C80104978617970708F491C00250E9
S1130E701109061B170B019311936D937C93CF01FA
S1130E8031DF86C05B01A01AB10A4C01800E911EAD
S1130E90A091E802B091E902612C712CE12CF12CB3
S1130EA0109709F446C08D919C911197A815B90526
S1130EB0B1F56C0142E0C40ED11CCA14DB0478F114
S1130EC04C018A189B08640142E0C40ED11C12969E
S1130ED0BC9012971396AC91B5E0CB16D10440F0B8
S1130EE0B282A38391828082D9016D937C9309C0DD
S1130EF00E5F1F4F800F911FF90191838083EB2DAB
S1130F00FA2FE114F10431F0D7011396FC93EE9318
S1130F1012973EC0F093E902E093E80239C06816E4
S1130F20790608F43C017D0112960D90BC91A02D28
S1130F30B7CF8091E6029091E70288169906E1F412
S1130F4066167706C8F4809100029091010200971A
S1130F5041F48DB79EB74091040250910502841B61
S1130F60950BE817F907B0F4F093E702E093E60273
S1130F70F901718360830CC0CB011CDE7C010097F6
S1130F8049F0A801BE013DD0CE01ACDEC70104C0CA
S1130F90CE0102C080E090E0DF91CF911F910F91CC
S1130FA0FF90EF90DF90CF90BF90AF909F908F9085
S1130FB07F906F9008951F93FC0199278827BC01A7
S1130FC0E89411911032E9F3193010F01E30C8F38F
S1130FD01B3249F01D3241F4689405C022D0610FE0
S1130FE0711D811D911D119110531A30B8F33EF4F7
S1130FF090958095709561957F4F8F4F9F4F1F916E
S11310000895FB01DC0102C001900D924150504053
S1131010D8F70895FB01DC0101900D920020E1F75F
S11310200895592F482F372F262F660F771F881FB3
S1131030991F660F771F881F991F620F731F841FE4
S1131040951F660F771F881F991F0895F894FFCF87
S11310500000EA0220000A4445433A200042494E77
S11310603A20004F43543A20004845583A200000A3
S1131070000000990103032D01DF01FF0019010B9A
S1131080010D0A006E616E00696E66006F7666007F
S9030000FC
