S0110000424344746F377365672E73726563F1
S11300000C942A000C9434000C9434000C943400A6
S11300100C9434000C9434000C9434000C9434008C
S11300200C9434000C9434000C9434000C9434007C
S11300300C9434000C9434000C9434000C9434006C
S11300400C9434000C9434000C9434000C9434005C
S11300500C94340011241FBECFE5D8E0DEBFCDBF21
S11300600E9436000C9456000C9400008FEF84BB61
S113007040E019C09C0122953295307F3227207FC1
S11300803227242B25BB2FE936E851E0215030409C
S11300905040E1F700C0000001968A30910551F705
S11300A04F5F4A3029F380E090E0E4CFF894FFCF2B
S9030000FC
