S00D0000426C696E6B2E7372656327
S11300000C9434000C943E000C943E000C943E007E
S11300100C943E000C943E000C943E000C943E0064
S11300200C943E000C943E000C943E000C943E0054
S11300300C943E000C943E000C943E000C943E0044
S11300400C943E000C943E000C943E000C943E0034
S11300500C943E000C943E000C943E000C943E0024
S11300600C943E000C943E0011241FBECFEFD8E048
S1130070DEBFCDBF0E946B000C947F000C94000087
S11300809093C5008093C40088E18093C10080E20E
S11300908093C00086E08093C200089580E480933A
S11300A07C0087E880937A00089590917C00807F9B
S11300B0982B90937C0080917A00806480937A00DE
S11300C080917A0086FDFCCF809178009091790030
S11300D00895259A089583E390E00E9440000E94C9
S11300E04E000E94690080E00E9455008093C60083
S11300F08115924010F02D9AF6CF2D98F4CFF894F4
S1050100FFCF2B
S9030000FC
