S015000055534152545F636F6D324D63752E737265638B
S11300000C9434000C943E000C943E000C943E007E
S11300100C943E000C943E000C943E000C943E0064
S11300200C943E000C943E000C943E000C943E0054
S11300300C943E000C943E000C943E000C943E0044
S11300400C943E000C943E000C943E000C943E0034
S11300500C943E000C943E000C943E000C943E0024
S11300600C943E000C943E0011241FBECFEFD8E048
S1130070DEBFCDBF0E945C000C9476000C9400009F
S11300809093C5008093C40088E18093C10080E20E
S11300908093C00086E08093C2000895E0ECF0E015
S11300A0908195FFFDCF8093C60008958091C00094
S11300B08091C60088B9089583E390E00E944000CF
S11300C08FEF87B9579AC1E08C2F0E944E000E948F
S11300D056002FEF89E698E1215080409040E1F7E7
S11300E000C00000CF5FC53679F7EDCFF894FFCF9D
S9030000FC
