S0140000484272696467654D6F746F722E737265636A
S11300000C9434000C943E000C943E000C943E007E
S11300100C943E000C943E000C943E000C943E0064
S11300200C943E000C943E000C943E000C943E0054
S11300300C943E000C943E000C943E000C943E0044
S11300400C943E000C943E000C943E000C943E0034
S11300500C943E000C943E000C943E000C943E0024
S11300600C943E000C943E0011241FBECFEFD8E048
S1130070DEBFCDBF0E9440000C9459000C940000D8
S11300808FEF87B99CE083E098B92FEF37EA41E618
S1130090215030404040E1F700C0000088B92FEF04
S11300A037EA41E6215030404040E1F700C000000B
S10900B0EBCFF894FFCF32
S9030000FC
