:100000000C9434000C943E000C943E000C943E0082
:100010000C943E000C943E000C943E000C943E0068
:100020000C943E000C943E000C943E000C943E0058
:100030000C943E000C943E000C943E000C943E0048
:100040000C943E000C943E000C943E000C943E0038
:100050000C943E000C943E000C943E000C943E0028
:100060000C943E000C943E0011241FBECFEFD8E04C
:10007000DEBFCDBF0E9456000C9485000C9400009A
:100080009093C5008093C40088E18093C10080E212
:100090008093C00086E08093C2000895E0ECF0E019
:1000A000908195FFFDCF8093C600089583E390E093
:1000B0000E9440008FEF87B9579A0F2EF0ECEF2E79
:1000C000F12CF02D06EC10E0C0E0F7018081F80182
:1000D00080818083808188B9FFEF29E688E1F15033
:1000E00020408040E1F700C000008C2F0E944E00AD
:1000F0009FEFE9E6F8E19150E040F040E1F700C001
:0E0100000000CF5FC53609F7DFCFF894FFCFC0
:00000001FF
