S00B00004144432E7372656351
S11300000C9434000C943E000C943E000C943E007E
S11300100C943E000C943E000C943E000C943E0064
S11300200C943E000C943E000C943E000C943E0054
S11300300C943E000C943E000C943E000C943E0044
S11300400C943E000C943E000C943E000C943E0034
S11300500C943E000C943E000C943E000C943E0024
S11300600C943E000C943E0011241FBECFEFD8E048
S1130070DEBFCDBF0E946A000C94DA000C9400002D
S11300809093C5008093C40088E18093C10080E20E
S11300908093C00086E08093C200089580E480933A
S11300A07C0087E880937A000895ECE7F0E0908183
S11300B0807F982B9083EAE7F0E0808180648083DE
S11300C0808186FDFDCF809178009091790008951C
S11300D0259A0895CF93DF93CDB7DEB764970FB613
S11300E0F894DEBF0FBECDBF83E390E00E944000D2
S11300F00E944E000E9468007E0185E1E80EF11C1A
S113010006EC10E080E00E9455006C014AE0BE015C
S11301106F5F7F4F0E94A500FE0131968BB180581E
S11301208BB98191D8018C938FE19EE40197F1F70B
S113013000C00000EE15FF0589F7C11492E0D9064E
S113014010F02D9ADFCF2D98DDCFBB274A3031F444
S1130150992322F4BDE2909581959F4F0C94B100B0
S1130160BB27FB015527AA27880F991FAA1FA4178D
S113017010F0A41B83955051B9F7A05DAA3308F081
S1130180A95DA193009779F7B111B1931192CB01B5
S11301900C94CA00DC01FC01672F71917723E1F70D
S11301A0329704C07C916D9370836291AE17BF0740
S10B01B0C8F30895F894FFCF91
S9030000FC
