:100000000C942A000C9434000C9434000C943400AA
:100010000C9434000C9434000C9434000C94340090
:100020000C9434000C9434000C9434000C94340080
:100030000C9434000C9434000C9434000C94340070
:100040000C9434000C9434000C9434000C94340060
:100050000C94340011241FBECFE5D8E0DEBFCDBF25
:100060000E943B000C9448000C94000083B7816010
:1000700083BF12BE08958FEF84BB0E94360091E0CB
:1000800082B78F3BE8F385B3892785BB12BEF8CFD3
:04009000F894FFCF12
:00000001FF
