S0110000646F746D61747269782E7372656337
S11300000C942A000C9434000C9434000C943400A6
S11300100C9434000C9434000C9434000C9434008C
S11300200C9434000C9434000C9434000C9434007C
S11300300C9434000C9434000C9434000C9434006C
S11300400C9434000C9434000C9434000C9434005C
S11300500C94340011241FBECFE5D8E0DEBFCDBF21
S11300600E9436000C945D000C9400008FEF84BB5A
S113007081BB5EEF61E070E052BB20E030E045B34D
S1130080CB01022E02C0880F991F0A94E2F7942F25
S1130090982B95BB4FEFE1EEF4E04150E040F04087
S11300A0E1F700C0000095B38095892385BB2F5FDD
S11100B03F4F2530310519F7DFCFF894FFCF0D
S9030000FC
