S013000073657269616C5072696E742E7372656384
S113000072C000009EC000009CC000009AC00000A6
S113001098C0000096C0000094C0000092C0000088
S113002090C000008EC000008CC000008AC0000098
S113003088C0000086C0000084C0000082C00000A8
S113004080C000007EC000007CC000007AC00000B8
S113005078C0000076C0000074C00000A6C3000091
S113006070C0000029C200005DC200006AC0000028
S113007068C0000066C0000064C0000062C00000E8
S113008060C000005EC000005CC000005AC00000F8
S113009058C0000056C0000054C0000052C0000008
S11300A050C000004EC000004CC000004AC0000018
S11300B048C0000046C0000044C0000042C0000028
S11300C040C000003EC000003CC000003AC0000038
S11300D038C0000036C0000034C0000032C0000048
S11300E030C00000C40211241FBECFEFD1E2DEBF36
S11300F0CDBF00E00CBF12E0A0E0B2E0E8E1FAE01E
S113010000E00BBF02C007900D92AA31B107D9F7E6
S113011022E0AAE1B2E001C01D92A03CB207E1F7DF
S113012010E0C3E7D0E000E005C021970109802F6B
S1130130FE0168D4C237D10780E00807B1F752D274
S113014069C45ECF26E040E855E260E070E08AE1F1
S113015092E04FD160E072E08AE192E08CD268EEE6
S113016073E080E090E090C34AE050E067E170E023
S11301708AE192E014D365E072E08AE192E07BD2F6
S113018068EE73E080E090E07FD348E050E067E100
S113019070E08AE192E003D365E072E08AE192E0E4
S11301A06AD268EE73E080E090E06ED340E150E004
S11301B067E170E08AE192E0F2D265E072E08AE100
S11301C092E059D268EE73E080E090E05DD342E0C3
S11301D050E067E170E08AE192E0E1D265E072E02C
S11301E08AE192E048D268EE73E080E090E04CC38C
S11301F0FC01918D228D892F90E0805C9F4F821BA2
S113020091098F7399270895FC01918D828D981718
S113021031F0828DE80FF11D858D90E008958FEF08
S11302209FEF0895FC01918D828D981761F0828D66
S1130230DF01A80FB11D5D968C91928D9F5F9F7316
S1130240928F90E008958FEF9FEF0895FC01538DF6
S1130250448D252F30E0842F90E0821B930B54179C
S113026010F0CF960895019708958BEB92E0892BB7
S113027039F080E090E0892B19F07DD1811125C0FF
S113028080E090E0892B41F080E090E0892B21F020
S11302900E94000081111CC080E090E0892B41F095
S11302A080E090E0892B21F00E940000811113C0AE
S11302B080E090E0892BA1F080E090E0892B81F030
S11302C00E94000081110AC008950E940000D8CF46
S11302D00E940000E1CF0E940000EACF0C940000CD
S11302E00895FC01848DDF01A80FB11DA35ABF4FEF
S11302F02C91848D90E001968F739927848FA68921
S1130300B7892C93A089B1898C9180648C93938D47
S1130310848D981306C00288F389E02D80818F7D37
S113032080830895EF92FF920F931F93CF93DF93EF
S1130330EC0181E0888F9B8D8C8D981305C0E88932
S1130340F989808185FD23C0F62E0B8D10E00F5FA7
S11303501F4F0F731127E02E8C8DE8120BC00FB6C0
S113036007FCFACFE889F989808185FFF5CFCE01B2
S1130370B8DFF2CF8B8DFE01E80FF11DE35AFF4F7A
S1130380F0820B8FEA89FB898081806207C0EE8945
S1130390FF896083E889F98980818064808381E0B2
S11303A090E0DF91CF911F910F91FF90EF9008950E
S11303B0CF93DF93EC01888D8823C1F0EA89FB8910
S11303C0808185FD05C0A889B9898C9186FD0EC000
S11303D00FB607FCF5CF808185FFF2CFA889B989D4
S11303E08C9185FFEDCFCE017CDFE8CFDF91CF91FB
S11303F00895CF92DF92EF92FF921F93CF93DF93F2
S1130400EC016A017B01122FE889F98982E080837B
S11304104115514E61057105A9F060E079E08DE365
S113042090E0A7019601CCD2DA01C9010197A10994
S1130430B109B695A795979587959C01211580E1FB
S11304403807A0F0E889F989108260E874E88EE141
S113045090E0A7019601B4D2DA01C9010197A1097C
S1130460B109B695A795979587959C01EC85FD856F
S11304703083EE85FF852083188EEC89FD891083F7
S1130480EA89FB89808180618083EA89FB89808194
S113049088608083EA89FB89808180688083EA8917
S11304A0FB8980818F7D8083DF91CF911F91FF90A5
S11304B0EF90DF90CF9008951F920F920FB60F9296
S11304C011240BB60F922F938F939F93EF93FF9367
S11304D0E0912A02F0912B028081E0913002F091A8
S11304E0310282FD12C09081809133028F5F8F733D
S11304F020913402821751F0E0913302F0E0E65E7D
S1130500FD4F958F8093330201C08081FF91EF915D
S11305109F918F912F910F900BBE0F900FBE0F9054
S11305201F9018951F920F920FB60F9211240BB6BD
S11305300F922F933F934F935F936F937F938F9378
S11305409F93AF93BF93EF93FF938AE192E0C9DE49
S1130550FF91EF91BF91AF919F918F917F916F9197
S11305605F914F913F912F910F900BBE0F900FBE53
S11305700F901F9018958AE192E03ADE21E0892BD2
S113058009F420E0822F0895EAE1F2E01382128256
S113059088EE93E0A0E0B0E084839583A683B783DC
S11305A08BE092E09183808385EC90E0958784874B
S11305B084EC90E09787868780EC90E0918B808B29
S11305C081EC90E0938B828B82EC90E0958B848B12
S11305D086EC90E0978B868B118E128E138E148E80
S11305E0089508958AD1FDDFADDDC5E3D1E0BCDD1A
S11305F02097E9F33ADEFBCFCF92DF92EF92FF929E
S11306000F931F93CF93DF936C017A018B01C0E0AA
S1130610D0E0CE15DF0581F0D8016D918D01D601B2
S1130620ED91FC910190F081E02DC6011995892B83
S113063011F02196EECF7E01C701DF91CF911F917A
S11306400F91FF90EF90DF90CF90089561157105A1
S113065079F0FB0101900020E9F73197AF01461BC7
S1130660570BDC01ED91FC910280F381E02D19948C
S113067080E090E00895EACFDC01ED91FC910190D7
S1130680F081E02D19948F929F92AF92BF92EF92D6
S1130690FF920F931F93CF93DF93CDB7DEB7A1974C
S11306A00FB6F894DEBF0FBECDBF7C01FA01CB01BB
S11306B019A2223008F42AE08E010F5D1F4F822E0A
S11306C0912CA12CB12CBF01A501940179D1F90180
S11306D0CA01015011096A3010F4605D01C0695CFF
S11306E0D8016C93232B242B252B69F7B801C70160
S11306F0ADDFA1960FB6F894DEBF0FBECDBFDF917C
S1130700CF911F910F91FF90EF90BF90AF909F906A
S11307108F900895CF92DF92EF92FF920F931F93E1
S1130720CF93DF932115310581F4DC01ED91FC9128
S11307300190F081E02D642FDF91CF911F910F91F3
S1130740FF90EF90DF90CF9019942A303105F1F4A7
S113075077FF1BC06A017B01EC016DE28DDF8C0128
S113076044275527BA014C195D096E097F092AE00F
S1130770CE0189DF800F911FDF91CF911F910F91DF
S1130780FF90EF90DF90CF9008952AE0DF91CF9112
S11307901F910F91FF90EF90DF90CF9074CF9A014B
S11307A0AB01770F660B770BB5CF1F920F920FB685
S11307B00F9211242F933F938F939F93AF93BF93E3
S11307C08091B8029091B902A091BA02B091BB0293
S11307D03091B70223E0230F2D3720F40196A11D99
S11307E0B11D05C026E8230F0296A11DB11D20935B
S11307F0B7028093B8029093B902A093BA02B0935F
S1130800BB028091BC029091BD02A091BE02B09146
S1130810BF020196A11DB11D8093BC029093BD023D
S1130820A093BE02B093BF02BF91AF919F918F91ED
S11308303F912F910F900FBE0F901F9018953FB7C7
S1130840F8948091BC029091BD02A091BE02B09137
S1130850BF0226B5A89B05C02F3F19F00196A11D24
S1130860B11D3FBFBA2FA92F982F8827820F911D42
S1130870A11DB11DBC01CD0142E0660F771F881F89
S1130880991F4A95D1F708958F929F92AF92BF9284
S1130890CF92DF92EF92FF926B017C01D0DF4B018C
S11308A05C01C114D104E104F104F1F088D0C7DF84
S11308B0DC01CB0188199909AA09BB09883E934038
S11308C0A105B10570F321E0C21AD108E108F108CD
S11308D088EE880E83E0981EA11CB11CC114D104BB
S11308E0E104F10421F7DDCFFF90EF90DF90CF908A
S11308F0BF90AF909F908F900895789484B5826054
S113090084BD84B5816084BD85B5826085BD85B5AF
S1130910816085BDEEE6F0E0808181608083E1E85E
S1130920F0E0108280818260808380818160808396
S1130930E0E8F0E0808181608083E1EBF0E0808199
S113094084608083E0EBF0E0808181608083E1E972
S1130950F0E0808182608083808181608083E0E92F
S1130960F0E0808181608083E1EAF0E08081826050
S11309708083808181608083E0EAF0E0808181600F
S11309808083E1E2F1E08081826080838081816004
S11309908083E0E2F1E0808181608083EAE7F0E037
S11309A08081846080838081826080838081816093
S11309B080838081806880831092C10008950895A7
S11309C0A1E21A2EAA1BBB1BFD010DC0AA1FBB1F4F
S11309D0EE1FFF1FA217B307E407F50720F0A21BC1
S11309E0B30BE40BF50B661F771F881F991F1A942E
S11309F069F760957095809590959B01AC01BD0158
S1130A00CF010895EE0FFF1F881F8BBF0790F6914B
S10B0A10E02D1994F894FFCFC6
S1130A1848656C6C6F0A00000000009201FC022615
S10D0A2801D801F8001201040100D6
S9030000FC
