S01300006D756C7469706C657865722E7372656356
S11300000C942A000C943F000C943F000C943F0085
S11300100C943F000C943F000C943F000C943F0060
S11300200C943F000C943F000C943F000C943F0050
S11300300C943F000C943F000C943F000C943F0040
S11300400C943F000C943F000C943F000C943F0030
S11300500C943F0011241FBECFE5D8E0DEBFCDBF16
S113006010E0A0E6B0E0E6E0F1E002C005900D92F9
S1130070AA36B107D9F70E9441000C9481000C9470
S11300800000CF93DF93CDB7DEB72A970FB6F8946D
S1130090DEBF0FBECDBF8FEF84BB81BB8AE0E0E63D
S11300A0F0E0DE01119601900D928A95E1F79E0130
S11300B0255F3F4F41E092E0DE0111961FC042BB35
S11300C08C9185BB5FE966E881E0515060408040D7
S11300D0E1F700C0000092BB819185BB5FE966E84F
S11300E081E0515060408040E1F700C000002E17CD
S11300F03F0729F711962A173B07F1F2FE013196C3
S1090100DECFF894FFCFEE
S10D01063F065B4F666D7D07FF6F37
S9030000FC
